{
  "_format": "hh-sol-artifact-1",
  "contractName": "NFTMarketplace",
  "sourceName": "contracts/NFTMarketplace.sol",
  "abi": [
    {
      "inputs": [],
      "stateMutability": "nonpayable",
      "type": "constructor"
    },
    {
      "anonymous": false,
      "inputs": [
        {
          "indexed": true,
          "internalType": "address",
          "name": "owner",
          "type": "address"
        },
        {
          "indexed": true,
          "internalType": "address",
          "name": "approved",
          "type": "address"
        },
        {
          "indexed": true,
          "internalType": "uint256",
          "name": "tokenId",
          "type": "uint256"
        }
      ],
      "name": "Approval",
      "type": "event"
    },
    {
      "anonymous": false,
      "inputs": [
        {
          "indexed": true,
          "internalType": "address",
          "name": "owner",
          "type": "address"
        },
        {
          "indexed": true,
          "internalType": "address",
          "name": "operator",
          "type": "address"
        },
        {
          "indexed": false,
          "internalType": "bool",
          "name": "approved",
          "type": "bool"
        }
      ],
      "name": "ApprovalForAll",
      "type": "event"
    },
    {
      "anonymous": false,
      "inputs": [
        {
          "indexed": true,
          "internalType": "uint256",
          "name": "tokenId",
          "type": "uint256"
        },
        {
          "indexed": false,
          "internalType": "address",
          "name": "seller",
          "type": "address"
        },
        {
          "indexed": false,
          "internalType": "address",
          "name": "owner",
          "type": "address"
        },
        {
          "indexed": false,
          "internalType": "uint256",
          "name": "price",
          "type": "uint256"
        },
        {
          "indexed": false,
          "internalType": "bool",
          "name": "sold",
          "type": "bool"
        }
      ],
      "name": "MarketItemCreated",
      "type": "event"
    },
    {
      "anonymous": false,
      "inputs": [
        {
          "indexed": true,
          "internalType": "address",
          "name": "from",
          "type": "address"
        },
        {
          "indexed": true,
          "internalType": "address",
          "name": "to",
          "type": "address"
        },
        {
          "indexed": true,
          "internalType": "uint256",
          "name": "tokenId",
          "type": "uint256"
        }
      ],
      "name": "Transfer",
      "type": "event"
    },
    {
      "inputs": [
        {
          "internalType": "address",
          "name": "to",
          "type": "address"
        },
        {
          "internalType": "uint256",
          "name": "tokenId",
          "type": "uint256"
        }
      ],
      "name": "approve",
      "outputs": [],
      "stateMutability": "nonpayable",
      "type": "function"
    },
    {
      "inputs": [
        {
          "internalType": "address",
          "name": "owner",
          "type": "address"
        }
      ],
      "name": "balanceOf",
      "outputs": [
        {
          "internalType": "uint256",
          "name": "",
          "type": "uint256"
        }
      ],
      "stateMutability": "view",
      "type": "function"
    },
    {
      "inputs": [
        {
          "internalType": "uint256",
          "name": "tokenId",
          "type": "uint256"
        }
      ],
      "name": "createMarketSale",
      "outputs": [],
      "stateMutability": "payable",
      "type": "function"
    },
    {
      "inputs": [
        {
          "internalType": "string",
          "name": "tokenURI",
          "type": "string"
        },
        {
          "internalType": "uint256",
          "name": "price",
          "type": "uint256"
        }
      ],
      "name": "createToken",
      "outputs": [
        {
          "internalType": "uint256",
          "name": "",
          "type": "uint256"
        }
      ],
      "stateMutability": "payable",
      "type": "function"
    },
    {
      "inputs": [],
      "name": "fetchItemsListed",
      "outputs": [
        {
          "components": [
            {
              "internalType": "uint256",
              "name": "tokenId",
              "type": "uint256"
            },
            {
              "internalType": "address payable",
              "name": "seller",
              "type": "address"
            },
            {
              "internalType": "address payable",
              "name": "owner",
              "type": "address"
            },
            {
              "internalType": "uint256",
              "name": "price",
              "type": "uint256"
            },
            {
              "internalType": "bool",
              "name": "sold",
              "type": "bool"
            }
          ],
          "internalType": "struct NFTMarketplace.MarketItem[]",
          "name": "",
          "type": "tuple[]"
        }
      ],
      "stateMutability": "view",
      "type": "function"
    },
    {
      "inputs": [],
      "name": "fetchMarketItems",
      "outputs": [
        {
          "components": [
            {
              "internalType": "uint256",
              "name": "tokenId",
              "type": "uint256"
            },
            {
              "internalType": "address payable",
              "name": "seller",
              "type": "address"
            },
            {
              "internalType": "address payable",
              "name": "owner",
              "type": "address"
            },
            {
              "internalType": "uint256",
              "name": "price",
              "type": "uint256"
            },
            {
              "internalType": "bool",
              "name": "sold",
              "type": "bool"
            }
          ],
          "internalType": "struct NFTMarketplace.MarketItem[]",
          "name": "",
          "type": "tuple[]"
        }
      ],
      "stateMutability": "view",
      "type": "function"
    },
    {
      "inputs": [],
      "name": "fetchMyNFTs",
      "outputs": [
        {
          "components": [
            {
              "internalType": "uint256",
              "name": "tokenId",
              "type": "uint256"
            },
            {
              "internalType": "address payable",
              "name": "seller",
              "type": "address"
            },
            {
              "internalType": "address payable",
              "name": "owner",
              "type": "address"
            },
            {
              "internalType": "uint256",
              "name": "price",
              "type": "uint256"
            },
            {
              "internalType": "bool",
              "name": "sold",
              "type": "bool"
            }
          ],
          "internalType": "struct NFTMarketplace.MarketItem[]",
          "name": "",
          "type": "tuple[]"
        }
      ],
      "stateMutability": "view",
      "type": "function"
    },
    {
      "inputs": [
        {
          "internalType": "uint256",
          "name": "tokenId",
          "type": "uint256"
        }
      ],
      "name": "getApproved",
      "outputs": [
        {
          "internalType": "address",
          "name": "",
          "type": "address"
        }
      ],
      "stateMutability": "view",
      "type": "function"
    },
    {
      "inputs": [],
      "name": "getListingPrice",
      "outputs": [
        {
          "internalType": "uint256",
          "name": "",
          "type": "uint256"
        }
      ],
      "stateMutability": "view",
      "type": "function"
    },
    {
      "inputs": [
        {
          "internalType": "address",
          "name": "owner",
          "type": "address"
        },
        {
          "internalType": "address",
          "name": "operator",
          "type": "address"
        }
      ],
      "name": "isApprovedForAll",
      "outputs": [
        {
          "internalType": "bool",
          "name": "",
          "type": "bool"
        }
      ],
      "stateMutability": "view",
      "type": "function"
    },
    {
      "inputs": [],
      "name": "name",
      "outputs": [
        {
          "internalType": "string",
          "name": "",
          "type": "string"
        }
      ],
      "stateMutability": "view",
      "type": "function"
    },
    {
      "inputs": [
        {
          "internalType": "uint256",
          "name": "tokenId",
          "type": "uint256"
        }
      ],
      "name": "ownerOf",
      "outputs": [
        {
          "internalType": "address",
          "name": "",
          "type": "address"
        }
      ],
      "stateMutability": "view",
      "type": "function"
    },
    {
      "inputs": [
        {
          "internalType": "uint256",
          "name": "tokenId",
          "type": "uint256"
        },
        {
          "internalType": "uint256",
          "name": "price",
          "type": "uint256"
        }
      ],
      "name": "resellToken",
      "outputs": [],
      "stateMutability": "payable",
      "type": "function"
    },
    {
      "inputs": [
        {
          "internalType": "address",
          "name": "from",
          "type": "address"
        },
        {
          "internalType": "address",
          "name": "to",
          "type": "address"
        },
        {
          "internalType": "uint256",
          "name": "tokenId",
          "type": "uint256"
        }
      ],
      "name": "safeTransferFrom",
      "outputs": [],
      "stateMutability": "nonpayable",
      "type": "function"
    },
    {
      "inputs": [
        {
          "internalType": "address",
          "name": "from",
          "type": "address"
        },
        {
          "internalType": "address",
          "name": "to",
          "type": "address"
        },
        {
          "internalType": "uint256",
          "name": "tokenId",
          "type": "uint256"
        },
        {
          "internalType": "bytes",
          "name": "data",
          "type": "bytes"
        }
      ],
      "name": "safeTransferFrom",
      "outputs": [],
      "stateMutability": "nonpayable",
      "type": "function"
    },
    {
      "inputs": [
        {
          "internalType": "address",
          "name": "operator",
          "type": "address"
        },
        {
          "internalType": "bool",
          "name": "approved",
          "type": "bool"
        }
      ],
      "name": "setApprovalForAll",
      "outputs": [],
      "stateMutability": "nonpayable",
      "type": "function"
    },
    {
      "inputs": [
        {
          "internalType": "bytes4",
          "name": "interfaceId",
          "type": "bytes4"
        }
      ],
      "name": "supportsInterface",
      "outputs": [
        {
          "internalType": "bool",
          "name": "",
          "type": "bool"
        }
      ],
      "stateMutability": "view",
      "type": "function"
    },
    {
      "inputs": [],
      "name": "symbol",
      "outputs": [
        {
          "internalType": "string",
          "name": "",
          "type": "string"
        }
      ],
      "stateMutability": "view",
      "type": "function"
    },
    {
      "inputs": [
        {
          "internalType": "uint256",
          "name": "tokenId",
          "type": "uint256"
        }
      ],
      "name": "tokenURI",
      "outputs": [
        {
          "internalType": "string",
          "name": "",
          "type": "string"
        }
      ],
      "stateMutability": "view",
      "type": "function"
    },
    {
      "inputs": [
        {
          "internalType": "address",
          "name": "from",
          "type": "address"
        },
        {
          "internalType": "address",
          "name": "to",
          "type": "address"
        },
        {
          "internalType": "uint256",
          "name": "tokenId",
          "type": "uint256"
        }
      ],
      "name": "transferFrom",
      "outputs": [],
      "stateMutability": "nonpayable",
      "type": "function"
    },
    {
      "inputs": [
        {
          "internalType": "uint256",
          "name": "_ListingPrice",
          "type": "uint256"
        }
      ],
      "name": "updateListingPrice",
      "outputs": [],
      "stateMutability": "payable",
      "type": "function"
    }
  ],
  "bytecode": "0x60806040526658d15e176280006009553480156200001c57600080fd5b506040518060400160405280600981526020017f6d657461766572736500000000000000000000000000000000000000000000008152506040518060400160405280600481526020017f4d4554540000000000000000000000000000000000000000000000000000000081525081600090816200009a919062000370565b508060019081620000ac919062000370565b50505033600a60006101000a81548173ffffffffffffffffffffffffffffffffffffffff021916908373ffffffffffffffffffffffffffffffffffffffff16021790555062000457565b600081519050919050565b7f4e487b7100000000000000000000000000000000000000000000000000000000600052604160045260246000fd5b7f4e487b7100000000000000000000000000000000000000000000000000000000600052602260045260246000fd5b600060028204905060018216806200017857607f821691505b6020821081036200018e576200018d62000130565b5b50919050565b60008190508160005260206000209050919050565b60006020601f8301049050919050565b600082821b905092915050565b600060088302620001f87fffffffffffffffffffffffffffffffffffffffffffffffffffffffffffffffff82620001b9565b620002048683620001b9565b95508019841693508086168417925050509392505050565b6000819050919050565b6000819050919050565b6000620002516200024b62000245846200021c565b62000226565b6200021c565b9050919050565b6000819050919050565b6200026d8362000230565b620002856200027c8262000258565b848454620001c6565b825550505050565b600090565b6200029c6200028d565b620002a981848462000262565b505050565b5b81811015620002d157620002c560008262000292565b600181019050620002af565b5050565b601f8211156200032057620002ea8162000194565b620002f584620001a9565b8101602085101562000305578190505b6200031d6200031485620001a9565b830182620002ae565b50505b505050565b600082821c905092915050565b6000620003456000198460080262000325565b1980831691505092915050565b600062000360838362000332565b9150826002028217905092915050565b6200037b82620000f6565b67ffffffffffffffff81111562000397576200039662000101565b5b620003a382546200015f565b620003b0828285620002d5565b600060209050601f831160018114620003e85760008415620003d3578287015190505b620003df858262000352565b8655506200044f565b601f198416620003f88662000194565b60005b828110156200042257848901518255600182019150602085019450602081019050620003fb565b868310156200044257848901516200043e601f89168262000332565b8355505b6001600288020188555050505b505050505050565b6141e780620004676000396000f3fe60806040526004361061012a5760003560e01c80636352211e116100ab578063ae677aa31161006f578063ae677aa3146103f9578063b88d4fde14610415578063be9af5361461043e578063c87b56dd1461045a578063e219fc7514610497578063e985e9c5146104b35761012a565b80636352211e146102fb57806370a082311461033857806372b3b6201461037557806395d89b41146103a5578063a22cb465146103d05761012a565b806312e85585116100f257806312e8558514610228578063202e37401461025357806323b872dd1461027e57806342842e0e146102a757806345f8fa80146102d05761012a565b806301ffc9a71461012f57806306fdde031461016c578063081812fc14610197578063095ea7b3146101d45780630f08efe0146101fd575b600080fd5b34801561013b57600080fd5b5061015660048036038101906101519190612af7565b6104f0565b6040516101639190612b3f565b60405180910390f35b34801561017857600080fd5b506101816105d2565b60405161018e9190612bea565b60405180910390f35b3480156101a357600080fd5b506101be60048036038101906101b99190612c42565b610664565b6040516101cb9190612cb0565b60405180910390f35b3480156101e057600080fd5b506101fb60048036038101906101f69190612cf7565b6106aa565b005b34801561020957600080fd5b506102126107c1565b60405161021f9190612e8d565b60405180910390f35b34801561023457600080fd5b5061023d610a29565b60405161024a9190612ebe565b60405180910390f35b34801561025f57600080fd5b50610268610a33565b6040516102759190612e8d565b60405180910390f35b34801561028a57600080fd5b506102a560048036038101906102a09190612ed9565b610d1f565b005b3480156102b357600080fd5b506102ce60048036038101906102c99190612ed9565b610d7f565b005b3480156102dc57600080fd5b506102e5610d9f565b6040516102f29190612e8d565b60405180910390f35b34801561030757600080fd5b50610322600480360381019061031d9190612c42565b61108b565b60405161032f9190612cb0565b60405180910390f35b34801561034457600080fd5b5061035f600480360381019061035a9190612f2c565b611111565b60405161036c9190612ebe565b60405180910390f35b61038f600480360381019061038a919061308e565b6111c8565b60405161039c9190612ebe565b60405180910390f35b3480156103b157600080fd5b506103ba61120a565b6040516103c79190612bea565b60405180910390f35b3480156103dc57600080fd5b506103f760048036038101906103f29190613116565b61129c565b005b610413600480360381019061040e9190612c42565b6112b2565b005b34801561042157600080fd5b5061043c600480360381019061043791906131f7565b61134c565b005b61045860048036038101906104539190612c42565b6113ae565b005b34801561046657600080fd5b50610481600480360381019061047c9190612c42565b6115e6565b60405161048e9190612bea565b60405180910390f35b6104b160048036038101906104ac919061327a565b6116f8565b005b3480156104bf57600080fd5b506104da60048036038101906104d591906132ba565b6118ed565b6040516104e79190612b3f565b60405180910390f35b60007f80ac58cd000000000000000000000000000000000000000000000000000000007bffffffffffffffffffffffffffffffffffffffffffffffffffffffff1916827bffffffffffffffffffffffffffffffffffffffffffffffffffffffff191614806105bb57507f5b5e139f000000000000000000000000000000000000000000000000000000007bffffffffffffffffffffffffffffffffffffffffffffffffffffffff1916827bffffffffffffffffffffffffffffffffffffffffffffffffffffffff1916145b806105cb57506105ca82611981565b5b9050919050565b6060600080546105e190613329565b80601f016020809104026020016040519081016040528092919081815260200182805461060d90613329565b801561065a5780601f1061062f5761010080835404028352916020019161065a565b820191906000526020600020905b81548152906001019060200180831161063d57829003601f168201915b5050505050905090565b600061066f826119eb565b6004600083815260200190815260200160002060009054906101000a900473ffffffffffffffffffffffffffffffffffffffff169050919050565b60006106b58261108b565b90508073ffffffffffffffffffffffffffffffffffffffff168373ffffffffffffffffffffffffffffffffffffffff1603610725576040517f08c379a000000000000000000000000000000000000000000000000000000000815260040161071c906133cc565b60405180910390fd5b8073ffffffffffffffffffffffffffffffffffffffff16610744611a36565b73ffffffffffffffffffffffffffffffffffffffff16148061077357506107728161076d611a36565b6118ed565b5b6107b2576040517f08c379a00000000000000000000000000000000000000000000000000000000081526004016107a99061345e565b60405180910390fd5b6107bc8383611a3e565b505050565b606060006107cf6007611af7565b905060006107dd6008611af7565b6107e76007611af7565b6107f191906134ad565b90506000808267ffffffffffffffff8111156108105761080f612f63565b5b60405190808252806020026020018201604052801561084957816020015b610836612a2e565b81526020019060019003908161082e5790505b50905060005b84811015610a1e573073ffffffffffffffffffffffffffffffffffffffff16600b600060018461087f91906134e1565b815260200190815260200160002060020160009054906101000a900473ffffffffffffffffffffffffffffffffffffffff1673ffffffffffffffffffffffffffffffffffffffff1603610a0b5760006001826108db91906134e1565b90506000600b60008381526020019081526020016000209050806040518060a0016040529081600082015481526020016001820160009054906101000a900473ffffffffffffffffffffffffffffffffffffffff1673ffffffffffffffffffffffffffffffffffffffff1673ffffffffffffffffffffffffffffffffffffffff1681526020016002820160009054906101000a900473ffffffffffffffffffffffffffffffffffffffff1673ffffffffffffffffffffffffffffffffffffffff1673ffffffffffffffffffffffffffffffffffffffff168152602001600382015481526020016004820160009054906101000a900460ff1615151515815250508486815181106109ee576109ed613515565b5b6020026020010181905250600185610a0691906134e1565b945050505b8080610a1690613544565b91505061084f565b508094505050505090565b6000600954905090565b60606000610a416007611af7565b905060008060005b83811015610ae9573373ffffffffffffffffffffffffffffffffffffffff16600b6000600184610a7991906134e1565b815260200190815260200160002060020160009054906101000a900473ffffffffffffffffffffffffffffffffffffffff1673ffffffffffffffffffffffffffffffffffffffff1603610ad657600183610ad391906134e1565b92505b8080610ae190613544565b915050610a49565b5060008267ffffffffffffffff811115610b0657610b05612f63565b5b604051908082528060200260200182016040528015610b3f57816020015b610b2c612a2e565b815260200190600190039081610b245790505b50905060005b83811015610d14573373ffffffffffffffffffffffffffffffffffffffff16600b6000600184610b7591906134e1565b815260200190815260200160002060020160009054906101000a900473ffffffffffffffffffffffffffffffffffffffff1673ffffffffffffffffffffffffffffffffffffffff1603610d01576000600182610bd191906134e1565b90506000600b60008381526020019081526020016000209050806040518060a0016040529081600082015481526020016001820160009054906101000a900473ffffffffffffffffffffffffffffffffffffffff1673ffffffffffffffffffffffffffffffffffffffff1673ffffffffffffffffffffffffffffffffffffffff1681526020016002820160009054906101000a900473ffffffffffffffffffffffffffffffffffffffff1673ffffffffffffffffffffffffffffffffffffffff1673ffffffffffffffffffffffffffffffffffffffff168152602001600382015481526020016004820160009054906101000a900460ff161515151581525050848681518110610ce457610ce3613515565b5b6020026020010181905250600185610cfc91906134e1565b945050505b8080610d0c90613544565b915050610b45565b508094505050505090565b610d30610d2a611a36565b82611b05565b610d6f576040517f08c379a0000000000000000000000000000000000000000000000000000000008152600401610d66906135fe565b60405180910390fd5b610d7a838383611b9a565b505050565b610d9a8383836040518060200160405280600081525061134c565b505050565b60606000610dad6007611af7565b905060008060005b83811015610e55573373ffffffffffffffffffffffffffffffffffffffff16600b6000600184610de591906134e1565b815260200190815260200160002060010160009054906101000a900473ffffffffffffffffffffffffffffffffffffffff1673ffffffffffffffffffffffffffffffffffffffff1603610e4257600183610e3f91906134e1565b92505b8080610e4d90613544565b915050610db5565b5060008267ffffffffffffffff811115610e7257610e71612f63565b5b604051908082528060200260200182016040528015610eab57816020015b610e98612a2e565b815260200190600190039081610e905790505b50905060005b83811015611080573373ffffffffffffffffffffffffffffffffffffffff16600b6000600184610ee191906134e1565b815260200190815260200160002060010160009054906101000a900473ffffffffffffffffffffffffffffffffffffffff1673ffffffffffffffffffffffffffffffffffffffff160361106d576000600182610f3d91906134e1565b90506000600b60008381526020019081526020016000209050806040518060a0016040529081600082015481526020016001820160009054906101000a900473ffffffffffffffffffffffffffffffffffffffff1673ffffffffffffffffffffffffffffffffffffffff1673ffffffffffffffffffffffffffffffffffffffff1681526020016002820160009054906101000a900473ffffffffffffffffffffffffffffffffffffffff1673ffffffffffffffffffffffffffffffffffffffff1673ffffffffffffffffffffffffffffffffffffffff168152602001600382015481526020016004820160009054906101000a900460ff1615151515815250508486815181106110505761104f613515565b5b602002602001018190525060018561106891906134e1565b945050505b808061107890613544565b915050610eb1565b508094505050505090565b60008061109783611e93565b9050600073ffffffffffffffffffffffffffffffffffffffff168173ffffffffffffffffffffffffffffffffffffffff1603611108576040517f08c379a00000000000000000000000000000000000000000000000000000000081526004016110ff9061366a565b60405180910390fd5b80915050919050565b60008073ffffffffffffffffffffffffffffffffffffffff168273ffffffffffffffffffffffffffffffffffffffff1603611181576040517f08c379a0000000000000000000000000000000000000000000000000000000008152600401611178906136fc565b60405180910390fd5b600360008373ffffffffffffffffffffffffffffffffffffffff1673ffffffffffffffffffffffffffffffffffffffff168152602001908152602001600020549050919050565b60006111d46007611ed0565b60006111e06007611af7565b90506111ec3382611ee6565b6111f68185612103565b6112008184612170565b8091505092915050565b60606001805461121990613329565b80601f016020809104026020016040519081016040528092919081815260200182805461124590613329565b80156112925780601f1061126757610100808354040283529160200191611292565b820191906000526020600020905b81548152906001019060200180831161127557829003601f168201915b5050505050905090565b6112ae6112a7611a36565b8383612373565b5050565b3373ffffffffffffffffffffffffffffffffffffffff16600a60009054906101000a900473ffffffffffffffffffffffffffffffffffffffff1673ffffffffffffffffffffffffffffffffffffffff1614611342576040517f08c379a00000000000000000000000000000000000000000000000000000000081526004016113399061378e565b60405180910390fd5b8060098190555050565b61135d611357611a36565b83611b05565b61139c576040517f08c379a0000000000000000000000000000000000000000000000000000000008152600401611393906135fe565b60405180910390fd5b6113a8848484846124df565b50505050565b6000600b600083815260200190815260200160002060030154905080341461140b576040517f08c379a0000000000000000000000000000000000000000000000000000000008152600401611402906137fa565b60405180910390fd5b33600b600084815260200190815260200160002060020160006101000a81548173ffffffffffffffffffffffffffffffffffffffff021916908373ffffffffffffffffffffffffffffffffffffffff1602179055506001600b600084815260200190815260200160002060040160006101000a81548160ff0219169083151502179055506000600b600084815260200190815260200160002060010160006101000a81548173ffffffffffffffffffffffffffffffffffffffff021916908373ffffffffffffffffffffffffffffffffffffffff1602179055506114ef6008611ed0565b6114fa303384611b9a565b600a60009054906101000a900473ffffffffffffffffffffffffffffffffffffffff1673ffffffffffffffffffffffffffffffffffffffff166108fc6009549081150290604051600060405180830381858888f19350505050158015611564573d6000803e3d6000fd5b50600b600083815260200190815260200160002060010160009054906101000a900473ffffffffffffffffffffffffffffffffffffffff1673ffffffffffffffffffffffffffffffffffffffff166108fc349081150290604051600060405180830381858888f193505050501580156115e1573d6000803e3d6000fd5b505050565b60606115f1826119eb565b600060066000848152602001908152602001600020805461161190613329565b80601f016020809104026020016040519081016040528092919081815260200182805461163d90613329565b801561168a5780601f1061165f5761010080835404028352916020019161168a565b820191906000526020600020905b81548152906001019060200180831161166d57829003601f168201915b50505050509050600061169b61253b565b905060008151036116b05781925050506116f3565b6000825111156116e55780826040516020016116cd929190613856565b604051602081830303815290604052925050506116f3565b6116ee84612552565b925050505b919050565b3373ffffffffffffffffffffffffffffffffffffffff16600b600084815260200190815260200160002060020160009054906101000a900473ffffffffffffffffffffffffffffffffffffffff1673ffffffffffffffffffffffffffffffffffffffff161461179c576040517f08c379a0000000000000000000000000000000000000000000000000000000008152600401611793906138c6565b60405180910390fd5b60095481146117e0576040517f08c379a00000000000000000000000000000000000000000000000000000000081526004016117d790613958565b60405180910390fd5b6000600b600084815260200190815260200160002060040160006101000a81548160ff02191690831515021790555080600b60008481526020019081526020016000206003018190555033600b600084815260200190815260200160002060010160006101000a81548173ffffffffffffffffffffffffffffffffffffffff021916908373ffffffffffffffffffffffffffffffffffffffff16021790555030600b600084815260200190815260200160002060020160006101000a81548173ffffffffffffffffffffffffffffffffffffffff021916908373ffffffffffffffffffffffffffffffffffffffff1602179055506118de60086125ba565b6118e9333084611b9a565b5050565b6000600560008473ffffffffffffffffffffffffffffffffffffffff1673ffffffffffffffffffffffffffffffffffffffff16815260200190815260200160002060008373ffffffffffffffffffffffffffffffffffffffff1673ffffffffffffffffffffffffffffffffffffffff16815260200190815260200160002060009054906101000a900460ff16905092915050565b60007f01ffc9a7000000000000000000000000000000000000000000000000000000007bffffffffffffffffffffffffffffffffffffffffffffffffffffffff1916827bffffffffffffffffffffffffffffffffffffffffffffffffffffffff1916149050919050565b6119f481612616565b611a33576040517f08c379a0000000000000000000000000000000000000000000000000000000008152600401611a2a9061366a565b60405180910390fd5b50565b600033905090565b816004600083815260200190815260200160002060006101000a81548173ffffffffffffffffffffffffffffffffffffffff021916908373ffffffffffffffffffffffffffffffffffffffff160217905550808273ffffffffffffffffffffffffffffffffffffffff16611ab18361108b565b73ffffffffffffffffffffffffffffffffffffffff167f8c5be1e5ebec7d5bd14f71427d1e84f3dd0314c0f7b2291e5b200ac8c7c3b92560405160405180910390a45050565b600081600001549050919050565b600080611b118361108b565b90508073ffffffffffffffffffffffffffffffffffffffff168473ffffffffffffffffffffffffffffffffffffffff161480611b535750611b5281856118ed565b5b80611b9157508373ffffffffffffffffffffffffffffffffffffffff16611b7984610664565b73ffffffffffffffffffffffffffffffffffffffff16145b91505092915050565b8273ffffffffffffffffffffffffffffffffffffffff16611bba8261108b565b73ffffffffffffffffffffffffffffffffffffffff1614611c10576040517f08c379a0000000000000000000000000000000000000000000000000000000008152600401611c07906139ea565b60405180910390fd5b600073ffffffffffffffffffffffffffffffffffffffff168273ffffffffffffffffffffffffffffffffffffffff1603611c7f576040517f08c379a0000000000000000000000000000000000000000000000000000000008152600401611c7690613a7c565b60405180910390fd5b611c8c8383836001612657565b8273ffffffffffffffffffffffffffffffffffffffff16611cac8261108b565b73ffffffffffffffffffffffffffffffffffffffff1614611d02576040517f08c379a0000000000000000000000000000000000000000000000000000000008152600401611cf9906139ea565b60405180910390fd5b6004600082815260200190815260200160002060006101000a81549073ffffffffffffffffffffffffffffffffffffffff02191690556001600360008573ffffffffffffffffffffffffffffffffffffffff1673ffffffffffffffffffffffffffffffffffffffff168152602001908152602001600020600082825403925050819055506001600360008473ffffffffffffffffffffffffffffffffffffffff1673ffffffffffffffffffffffffffffffffffffffff16815260200190815260200160002060008282540192505081905550816002600083815260200190815260200160002060006101000a81548173ffffffffffffffffffffffffffffffffffffffff021916908373ffffffffffffffffffffffffffffffffffffffff160217905550808273ffffffffffffffffffffffffffffffffffffffff168473ffffffffffffffffffffffffffffffffffffffff167fddf252ad1be2c89b69c2b068fc378daa952ba7f163c4a11628f55a4df523b3ef60405160405180910390a4611e8e838383600161265d565b505050565b60006002600083815260200190815260200160002060009054906101000a900473ffffffffffffffffffffffffffffffffffffffff169050919050565b6001816000016000828254019250508190555050565b600073ffffffffffffffffffffffffffffffffffffffff168273ffffffffffffffffffffffffffffffffffffffff1603611f55576040517f08c379a0000000000000000000000000000000000000000000000000000000008152600401611f4c90613ae8565b60405180910390fd5b611f5e81612616565b15611f9e576040517f08c379a0000000000000000000000000000000000000000000000000000000008152600401611f9590613b54565b60405180910390fd5b611fac600083836001612657565b611fb581612616565b15611ff5576040517f08c379a0000000000000000000000000000000000000000000000000000000008152600401611fec90613b54565b60405180910390fd5b6001600360008473ffffffffffffffffffffffffffffffffffffffff1673ffffffffffffffffffffffffffffffffffffffff16815260200190815260200160002060008282540192505081905550816002600083815260200190815260200160002060006101000a81548173ffffffffffffffffffffffffffffffffffffffff021916908373ffffffffffffffffffffffffffffffffffffffff160217905550808273ffffffffffffffffffffffffffffffffffffffff16600073ffffffffffffffffffffffffffffffffffffffff167fddf252ad1be2c89b69c2b068fc378daa952ba7f163c4a11628f55a4df523b3ef60405160405180910390a46120ff60008383600161265d565b5050565b61210c82612616565b61214b576040517f08c379a000000000000000000000000000000000000000000000000000000000815260040161214290613be6565b60405180910390fd5b8060066000848152602001908152602001600020908161216b9190613db2565b505050565b600081116121b3576040517f08c379a00000000000000000000000000000000000000000000000000000000081526004016121aa90613ed0565b60405180910390fd5b60095434146121f7576040517f08c379a00000000000000000000000000000000000000000000000000000000081526004016121ee90613958565b60405180910390fd5b6040518060a001604052808381526020013373ffffffffffffffffffffffffffffffffffffffff1681526020013073ffffffffffffffffffffffffffffffffffffffff16815260200182815260200160001515815250600b60008481526020019081526020016000206000820151816000015560208201518160010160006101000a81548173ffffffffffffffffffffffffffffffffffffffff021916908373ffffffffffffffffffffffffffffffffffffffff16021790555060408201518160020160006101000a81548173ffffffffffffffffffffffffffffffffffffffff021916908373ffffffffffffffffffffffffffffffffffffffff1602179055506060820151816003015560808201518160040160006101000a81548160ff021916908315150217905550905050612330333084611b9a565b817fb640004f1d14576d0c209e240cad0410e0d8c0c33a09375861fbadae2588a98d33308460006040516123679493929190613ef0565b60405180910390a25050565b8173ffffffffffffffffffffffffffffffffffffffff168373ffffffffffffffffffffffffffffffffffffffff16036123e1576040517f08c379a00000000000000000000000000000000000000000000000000000000081526004016123d890613f81565b60405180910390fd5b80600560008573ffffffffffffffffffffffffffffffffffffffff1673ffffffffffffffffffffffffffffffffffffffff16815260200190815260200160002060008473ffffffffffffffffffffffffffffffffffffffff1673ffffffffffffffffffffffffffffffffffffffff16815260200190815260200160002060006101000a81548160ff0219169083151502179055508173ffffffffffffffffffffffffffffffffffffffff168373ffffffffffffffffffffffffffffffffffffffff167f17307eab39ab6107e8899845ad3d59bd9653f200f220920489ca2b5937696c31836040516124d29190612b3f565b60405180910390a3505050565b6124ea848484611b9a565b6124f684848484612663565b612535576040517f08c379a000000000000000000000000000000000000000000000000000000000815260040161252c90614013565b60405180910390fd5b50505050565b606060405180602001604052806000815250905090565b606061255d826119eb565b600061256761253b565b9050600081511161258757604051806020016040528060008152506125b2565b80612591846127ea565b6040516020016125a2929190613856565b6040516020818303038152906040525b915050919050565b60008160000154905060008111612606576040517f08c379a00000000000000000000000000000000000000000000000000000000081526004016125fd9061407f565b60405180910390fd5b6001810382600001819055505050565b60008073ffffffffffffffffffffffffffffffffffffffff1661263883611e93565b73ffffffffffffffffffffffffffffffffffffffff1614159050919050565b50505050565b50505050565b60006126848473ffffffffffffffffffffffffffffffffffffffff166128b8565b156127dd578373ffffffffffffffffffffffffffffffffffffffff1663150b7a026126ad611a36565b8786866040518563ffffffff1660e01b81526004016126cf94939291906140f4565b6020604051808303816000875af192505050801561270b57506040513d601f19601f820116820180604052508101906127089190614155565b60015b61278d573d806000811461273b576040519150601f19603f3d011682016040523d82523d6000602084013e612740565b606091505b506000815103612785576040517f08c379a000000000000000000000000000000000000000000000000000000000815260040161277c90614013565b60405180910390fd5b805181602001fd5b63150b7a0260e01b7bffffffffffffffffffffffffffffffffffffffffffffffffffffffff1916817bffffffffffffffffffffffffffffffffffffffffffffffffffffffff1916149150506127e2565b600190505b949350505050565b6060600060016127f9846128db565b01905060008167ffffffffffffffff81111561281857612817612f63565b5b6040519080825280601f01601f19166020018201604052801561284a5781602001600182028036833780820191505090505b509050600082602001820190505b6001156128ad578080600190039150507f3031323334353637383961626364656600000000000000000000000000000000600a86061a8153600a85816128a1576128a0614182565b5b04945060008503612858575b819350505050919050565b6000808273ffffffffffffffffffffffffffffffffffffffff163b119050919050565b600080600090507a184f03e93ff9f4daa797ed6e38ed64bf6a1f0100000000000000008310612939577a184f03e93ff9f4daa797ed6e38ed64bf6a1f010000000000000000838161292f5761292e614182565b5b0492506040810190505b6d04ee2d6d415b85acef81000000008310612976576d04ee2d6d415b85acef8100000000838161296c5761296b614182565b5b0492506020810190505b662386f26fc1000083106129a557662386f26fc10000838161299b5761299a614182565b5b0492506010810190505b6305f5e10083106129ce576305f5e10083816129c4576129c3614182565b5b0492506008810190505b61271083106129f35761271083816129e9576129e8614182565b5b0492506004810190505b60648310612a165760648381612a0c57612a0b614182565b5b0492506002810190505b600a8310612a25576001810190505b80915050919050565b6040518060a0016040528060008152602001600073ffffffffffffffffffffffffffffffffffffffff168152602001600073ffffffffffffffffffffffffffffffffffffffff168152602001600081526020016000151581525090565b6000604051905090565b600080fd5b600080fd5b60007fffffffff0000000000000000000000000000000000000000000000000000000082169050919050565b612ad481612a9f565b8114612adf57600080fd5b50565b600081359050612af181612acb565b92915050565b600060208284031215612b0d57612b0c612a95565b5b6000612b1b84828501612ae2565b91505092915050565b60008115159050919050565b612b3981612b24565b82525050565b6000602082019050612b546000830184612b30565b92915050565b600081519050919050565b600082825260208201905092915050565b60005b83811015612b94578082015181840152602081019050612b79565b60008484015250505050565b6000601f19601f8301169050919050565b6000612bbc82612b5a565b612bc68185612b65565b9350612bd6818560208601612b76565b612bdf81612ba0565b840191505092915050565b60006020820190508181036000830152612c048184612bb1565b905092915050565b6000819050919050565b612c1f81612c0c565b8114612c2a57600080fd5b50565b600081359050612c3c81612c16565b92915050565b600060208284031215612c5857612c57612a95565b5b6000612c6684828501612c2d565b91505092915050565b600073ffffffffffffffffffffffffffffffffffffffff82169050919050565b6000612c9a82612c6f565b9050919050565b612caa81612c8f565b82525050565b6000602082019050612cc56000830184612ca1565b92915050565b612cd481612c8f565b8114612cdf57600080fd5b50565b600081359050612cf181612ccb565b92915050565b60008060408385031215612d0e57612d0d612a95565b5b6000612d1c85828601612ce2565b9250506020612d2d85828601612c2d565b9150509250929050565b600081519050919050565b600082825260208201905092915050565b6000819050602082019050919050565b612d6c81612c0c565b82525050565b6000612d7d82612c6f565b9050919050565b612d8d81612d72565b82525050565b612d9c81612b24565b82525050565b60a082016000820151612db86000850182612d63565b506020820151612dcb6020850182612d84565b506040820151612dde6040850182612d84565b506060820151612df16060850182612d63565b506080820151612e046080850182612d93565b50505050565b6000612e168383612da2565b60a08301905092915050565b6000602082019050919050565b6000612e3a82612d37565b612e448185612d42565b9350612e4f83612d53565b8060005b83811015612e80578151612e678882612e0a565b9750612e7283612e22565b925050600181019050612e53565b5085935050505092915050565b60006020820190508181036000830152612ea78184612e2f565b905092915050565b612eb881612c0c565b82525050565b6000602082019050612ed36000830184612eaf565b92915050565b600080600060608486031215612ef257612ef1612a95565b5b6000612f0086828701612ce2565b9350506020612f1186828701612ce2565b9250506040612f2286828701612c2d565b9150509250925092565b600060208284031215612f4257612f41612a95565b5b6000612f5084828501612ce2565b91505092915050565b600080fd5b600080fd5b7f4e487b7100000000000000000000000000000000000000000000000000000000600052604160045260246000fd5b612f9b82612ba0565b810181811067ffffffffffffffff82111715612fba57612fb9612f63565b5b80604052505050565b6000612fcd612a8b565b9050612fd98282612f92565b919050565b600067ffffffffffffffff821115612ff957612ff8612f63565b5b61300282612ba0565b9050602081019050919050565b82818337600083830152505050565b600061303161302c84612fde565b612fc3565b90508281526020810184848401111561304d5761304c612f5e565b5b61305884828561300f565b509392505050565b600082601f83011261307557613074612f59565b5b813561308584826020860161301e565b91505092915050565b600080604083850312156130a5576130a4612a95565b5b600083013567ffffffffffffffff8111156130c3576130c2612a9a565b5b6130cf85828601613060565b92505060206130e085828601612c2d565b9150509250929050565b6130f381612b24565b81146130fe57600080fd5b50565b600081359050613110816130ea565b92915050565b6000806040838503121561312d5761312c612a95565b5b600061313b85828601612ce2565b925050602061314c85828601613101565b9150509250929050565b600067ffffffffffffffff82111561317157613170612f63565b5b61317a82612ba0565b9050602081019050919050565b600061319a61319584613156565b612fc3565b9050828152602081018484840111156131b6576131b5612f5e565b5b6131c184828561300f565b509392505050565b600082601f8301126131de576131dd612f59565b5b81356131ee848260208601613187565b91505092915050565b6000806000806080858703121561321157613210612a95565b5b600061321f87828801612ce2565b945050602061323087828801612ce2565b935050604061324187828801612c2d565b925050606085013567ffffffffffffffff81111561326257613261612a9a565b5b61326e878288016131c9565b91505092959194509250565b6000806040838503121561329157613290612a95565b5b600061329f85828601612c2d565b92505060206132b085828601612c2d565b9150509250929050565b600080604083850312156132d1576132d0612a95565b5b60006132df85828601612ce2565b92505060206132f085828601612ce2565b9150509250929050565b7f4e487b7100000000000000000000000000000000000000000000000000000000600052602260045260246000fd5b6000600282049050600182168061334157607f821691505b602082108103613354576133536132fa565b5b50919050565b7f4552433732313a20617070726f76616c20746f2063757272656e74206f776e6560008201527f7200000000000000000000000000000000000000000000000000000000000000602082015250565b60006133b6602183612b65565b91506133c18261335a565b604082019050919050565b600060208201905081810360008301526133e5816133a9565b9050919050565b7f4552433732313a20617070726f76652063616c6c6572206973206e6f7420746f60008201527f6b656e206f776e6572206f7220617070726f76656420666f7220616c6c000000602082015250565b6000613448603d83612b65565b9150613453826133ec565b604082019050919050565b600060208201905081810360008301526134778161343b565b9050919050565b7f4e487b7100000000000000000000000000000000000000000000000000000000600052601160045260246000fd5b60006134b882612c0c565b91506134c383612c0c565b92508282039050818111156134db576134da61347e565b5b92915050565b60006134ec82612c0c565b91506134f783612c0c565b925082820190508082111561350f5761350e61347e565b5b92915050565b7f4e487b7100000000000000000000000000000000000000000000000000000000600052603260045260246000fd5b600061354f82612c0c565b91507fffffffffffffffffffffffffffffffffffffffffffffffffffffffffffffffff82036135815761358061347e565b5b600182019050919050565b7f4552433732313a2063616c6c6572206973206e6f7420746f6b656e206f776e6560008201527f72206f7220617070726f76656400000000000000000000000000000000000000602082015250565b60006135e8602d83612b65565b91506135f38261358c565b604082019050919050565b60006020820190508181036000830152613617816135db565b9050919050565b7f4552433732313a20696e76616c696420746f6b656e2049440000000000000000600082015250565b6000613654601883612b65565b915061365f8261361e565b602082019050919050565b6000602082019050818103600083015261368381613647565b9050919050565b7f4552433732313a2061646472657373207a65726f206973206e6f74206120766160008201527f6c6964206f776e65720000000000000000000000000000000000000000000000602082015250565b60006136e6602983612b65565b91506136f18261368a565b604082019050919050565b60006020820190508181036000830152613715816136d9565b9050919050565b7f4f6e6c79206d61726b6574706c616365204f776e65722063616e20757064617460008201527f6520746865206c697374696e6720707269636500000000000000000000000000602082015250565b6000613778603383612b65565b91506137838261371c565b604082019050919050565b600060208201905081810360008301526137a78161376b565b9050919050565b7f506c65617365207375626d697420746865206269642070726963650000000000600082015250565b60006137e4601b83612b65565b91506137ef826137ae565b602082019050919050565b60006020820190508181036000830152613813816137d7565b9050919050565b600081905092915050565b600061383082612b5a565b61383a818561381a565b935061384a818560208601612b76565b80840191505092915050565b60006138628285613825565b915061386e8284613825565b91508190509392505050565b7f4f776e65722063616e20706572666f726d2074686973206f7065726174696f6e600082015250565b60006138b0602083612b65565b91506138bb8261387a565b602082019050919050565b600060208201905081810360008301526138df816138a3565b9050919050565b7f5072696365206d75737420626520657175616c20746f206c697374696e67207060008201527f7269636500000000000000000000000000000000000000000000000000000000602082015250565b6000613942602483612b65565b915061394d826138e6565b604082019050919050565b6000602082019050818103600083015261397181613935565b9050919050565b7f4552433732313a207472616e736665722066726f6d20696e636f72726563742060008201527f6f776e6572000000000000000000000000000000000000000000000000000000602082015250565b60006139d4602583612b65565b91506139df82613978565b604082019050919050565b60006020820190508181036000830152613a03816139c7565b9050919050565b7f4552433732313a207472616e7366657220746f20746865207a65726f2061646460008201527f7265737300000000000000000000000000000000000000000000000000000000602082015250565b6000613a66602483612b65565b9150613a7182613a0a565b604082019050919050565b60006020820190508181036000830152613a9581613a59565b9050919050565b7f4552433732313a206d696e7420746f20746865207a65726f2061646472657373600082015250565b6000613ad2602083612b65565b9150613add82613a9c565b602082019050919050565b60006020820190508181036000830152613b0181613ac5565b9050919050565b7f4552433732313a20746f6b656e20616c7265616479206d696e74656400000000600082015250565b6000613b3e601c83612b65565b9150613b4982613b08565b602082019050919050565b60006020820190508181036000830152613b6d81613b31565b9050919050565b7f45524337323155524953746f726167653a2055524920736574206f66206e6f6e60008201527f6578697374656e7420746f6b656e000000000000000000000000000000000000602082015250565b6000613bd0602e83612b65565b9150613bdb82613b74565b604082019050919050565b60006020820190508181036000830152613bff81613bc3565b9050919050565b60008190508160005260206000209050919050565b60006020601f8301049050919050565b600082821b905092915050565b600060088302613c687fffffffffffffffffffffffffffffffffffffffffffffffffffffffffffffffff82613c2b565b613c728683613c2b565b95508019841693508086168417925050509392505050565b6000819050919050565b6000613caf613caa613ca584612c0c565b613c8a565b612c0c565b9050919050565b6000819050919050565b613cc983613c94565b613cdd613cd582613cb6565b848454613c38565b825550505050565b600090565b613cf2613ce5565b613cfd818484613cc0565b505050565b5b81811015613d2157613d16600082613cea565b600181019050613d03565b5050565b601f821115613d6657613d3781613c06565b613d4084613c1b565b81016020851015613d4f578190505b613d63613d5b85613c1b565b830182613d02565b50505b505050565b600082821c905092915050565b6000613d8960001984600802613d6b565b1980831691505092915050565b6000613da28383613d78565b9150826002028217905092915050565b613dbb82612b5a565b67ffffffffffffffff811115613dd457613dd3612f63565b5b613dde8254613329565b613de9828285613d25565b600060209050601f831160018114613e1c5760008415613e0a578287015190505b613e148582613d96565b865550613e7c565b601f198416613e2a86613c06565b60005b82811015613e5257848901518255600182019150602085019450602081019050613e2d565b86831015613e6f5784890151613e6b601f891682613d78565b8355505b6001600288020188555050505b505050505050565b7f50726963652063616e2774206265207a65726f00000000000000000000000000600082015250565b6000613eba601383612b65565b9150613ec582613e84565b602082019050919050565b60006020820190508181036000830152613ee981613ead565b9050919050565b6000608082019050613f056000830187612ca1565b613f126020830186612ca1565b613f1f6040830185612eaf565b613f2c6060830184612b30565b95945050505050565b7f4552433732313a20617070726f766520746f2063616c6c657200000000000000600082015250565b6000613f6b601983612b65565b9150613f7682613f35565b602082019050919050565b60006020820190508181036000830152613f9a81613f5e565b9050919050565b7f4552433732313a207472616e7366657220746f206e6f6e20455243373231526560008201527f63656976657220696d706c656d656e7465720000000000000000000000000000602082015250565b6000613ffd603283612b65565b915061400882613fa1565b604082019050919050565b6000602082019050818103600083015261402c81613ff0565b9050919050565b7f436f756e7465723a2064656372656d656e74206f766572666c6f770000000000600082015250565b6000614069601b83612b65565b915061407482614033565b602082019050919050565b600060208201905081810360008301526140988161405c565b9050919050565b600081519050919050565b600082825260208201905092915050565b60006140c68261409f565b6140d081856140aa565b93506140e0818560208601612b76565b6140e981612ba0565b840191505092915050565b60006080820190506141096000830187612ca1565b6141166020830186612ca1565b6141236040830185612eaf565b818103606083015261413581846140bb565b905095945050505050565b60008151905061414f81612acb565b92915050565b60006020828403121561416b5761416a612a95565b5b600061417984828501614140565b91505092915050565b7f4e487b7100000000000000000000000000000000000000000000000000000000600052601260045260246000fdfea2646970667358221220c76c8e15ee5533e20c193c4d65dfcc202ff37245ccf32f709cc6cee5c698780464736f6c63430008120033",
  "linkReferences": {},
  "deployedLinkReferences": {}
}